{
  "contractName": "OrderGateway",
  "abi": [
    {
      "constant": true,
      "inputs": [],
      "name": "paradigmBank",
      "outputs": [
        {
          "name": "",
          "type": "address"
        }
      ],
      "payable": false,
      "stateMutability": "view",
      "type": "function"
    },
    {
      "inputs": [],
      "payable": false,
      "stateMutability": "nonpayable",
      "type": "constructor"
    },
    {
      "anonymous": false,
      "inputs": [
        {
          "indexed": false,
          "name": "dealOwner",
          "type": "address"
        },
        {
          "indexed": false,
          "name": "timestamp",
          "type": "uint256"
        },
        {
          "indexed": false,
          "name": "modelAddress",
          "type": "address"
        },
        {
          "indexed": false,
          "name": "desiredToken",
          "type": "address"
        },
        {
          "indexed": false,
          "name": "paymentToken",
          "type": "address"
        }
      ],
      "name": "DealAdded",
      "type": "event"
    },
    {
      "constant": false,
      "inputs": [
        {
          "name": "subContract",
          "type": "address"
        },
        {
          "name": "makerData",
          "type": "bytes32[]"
        },
        {
          "name": "takerData",
          "type": "bytes32[]"
        }
      ],
      "name": "participate",
      "outputs": [
        {
          "name": "",
          "type": "bool"
        }
      ],
      "payable": false,
      "stateMutability": "nonpayable",
      "type": "function"
    },
    {
      "constant": true,
      "inputs": [
        {
          "name": "subContract",
          "type": "address"
        }
      ],
      "name": "makerDataTypes",
      "outputs": [
        {
          "name": "",
          "type": "string"
        }
      ],
      "payable": false,
      "stateMutability": "view",
      "type": "function"
    },
    {
      "constant": true,
      "inputs": [
        {
          "name": "subContract",
          "type": "address"
        }
      ],
      "name": "takerDataTypes",
      "outputs": [
        {
          "name": "",
          "type": "string"
        }
      ],
      "payable": false,
      "stateMutability": "view",
      "type": "function"
    }
  ],
  "bytecode": "0x608060405234801561001057600080fd5b5061001961007a565b604051809103906000f080158015610035573d6000803e3d6000fd5b506000806101000a81548173ffffffffffffffffffffffffffffffffffffffff021916908373ffffffffffffffffffffffffffffffffffffffff16021790555061008a565b60405161079b8061073c83390190565b6106a3806100996000396000f300608060405260043610610062576000357c0100000000000000000000000000000000000000000000000000000000900463ffffffff1680637569f2671461006757806387e07b8c14610123578063a77351591461017a578063ef37c8db14610236575b600080fd5b34801561007357600080fd5b506100a8600480360381019080803573ffffffffffffffffffffffffffffffffffffffff169060200190929190505050610317565b6040518080602001828103825283818151815260200191508051906020019080838360005b838110156100e85780820151818401526020810190506100cd565b50505050905090810190601f1680156101155780820380516001836020036101000a031916815260200191505b509250505060405180910390f35b34801561012f57600080fd5b50610138610415565b604051808273ffffffffffffffffffffffffffffffffffffffff1673ffffffffffffffffffffffffffffffffffffffff16815260200191505060405180910390f35b34801561018657600080fd5b506101bb600480360381019080803573ffffffffffffffffffffffffffffffffffffffff16906020019092919050505061043a565b6040518080602001828103825283818151815260200191508051906020019080838360005b838110156101fb5780820151818401526020810190506101e0565b50505050905090810190601f1680156102285780820380516001836020036101000a031916815260200191505b509250505060405180910390f35b34801561024257600080fd5b506102fd600480360381019080803573ffffffffffffffffffffffffffffffffffffffff1690602001909291908035906020019082018035906020019080806020026020016040519081016040528093929190818152602001838360200280828437820191505050505050919291929080359060200190820180359060200190808060200260200160405190810160405280939291908181526020018383602002808284378201915050505050509192919290505050610538565b604051808215151515815260200191505060405180910390f35b60608173ffffffffffffffffffffffffffffffffffffffff16633a689d136040518163ffffffff167c0100000000000000000000000000000000000000000000000000000000028152600401600060405180830381600087803b15801561037d57600080fd5b505af1158015610391573d6000803e3d6000fd5b505050506040513d6000823e3d601f19601f8201168201806040525060208110156103bb57600080fd5b8101908080516401000000008111156103d357600080fd5b828101905060208101848111156103e957600080fd5b815185600182028301116401000000008211171561040657600080fd5b50509291905050509050919050565b6000809054906101000a900473ffffffffffffffffffffffffffffffffffffffff1681565b60608173ffffffffffffffffffffffffffffffffffffffff16634dc704036040518163ffffffff167c0100000000000000000000000000000000000000000000000000000000028152600401600060405180830381600087803b1580156104a057600080fd5b505af11580156104b4573d6000803e3d6000fd5b505050506040513d6000823e3d601f19601f8201168201806040525060208110156104de57600080fd5b8101908080516401000000008111156104f657600080fd5b8281019050602081018481111561050c57600080fd5b815185600182028301116401000000008211171561052957600080fd5b50509291905050509050919050565b60008373ffffffffffffffffffffffffffffffffffffffff1663ea9960d884846040518363ffffffff167c0100000000000000000000000000000000000000000000000000000000028152600401808060200180602001838103835285818151815260200191508051906020019060200280838360005b838110156105ca5780820151818401526020810190506105af565b50505050905001838103825284818151815260200191508051906020019060200280838360005b8381101561060c5780820151818401526020810190506105f1565b50505050905001945050505050602060405180830381600087803b15801561063357600080fd5b505af1158015610647573d6000803e3d6000fd5b505050506040513d602081101561065d57600080fd5b8101908080519060200190929190505050905093925050505600a165627a7a72305820bfcc6da12e91cca1cdaf98b75d9f2e9ba114c83b06983268f131d32f6d4e95fe0029608060405234801561001057600080fd5b5061077b806100206000396000f30060806040526004361061004c576000357c0100000000000000000000000000000000000000000000000000000000900463ffffffff168063189a809214610051578063a616daa614610153575b600080fd5b34801561005d57600080fd5b50610139600480360381019080803573ffffffffffffffffffffffffffffffffffffffff169060200190929190803573ffffffffffffffffffffffffffffffffffffffff169060200190929190803573ffffffffffffffffffffffffffffffffffffffff16906020019092919080359060200190929190803573ffffffffffffffffffffffffffffffffffffffff16906020019092919080359060200190929190803560ff16906020019092919080356000191690602001909291908035600019169060200190929190803590602001909291905050506101d8565b604051808215151515815260200191505060405180910390f35b34801561015f57600080fd5b506101be600480360381019080803573ffffffffffffffffffffffffffffffffffffffff169060200190929190803573ffffffffffffffffffffffffffffffffffffffff169060200190929190803590602001909291905050506103f5565b604051808215151515815260200191505060405180910390f35b6000806101e88c8c8a8a87610512565b90506101f7818c88888861068e565b151561020257600080fd5b8973ffffffffffffffffffffffffffffffffffffffff168873ffffffffffffffffffffffffffffffffffffffff161480610252575060008873ffffffffffffffffffffffffffffffffffffffff16145b151561025d57600080fd5b86891115151561026c57600080fd5b866000808360001916600019168152602001908152602001600020548a011115151561029757600080fd5b88600080836000191660001916815260200190815260200160002054016000808360001916600019168152602001908152602001600020819055508b73ffffffffffffffffffffffffffffffffffffffff166323b872dd8c8c8c6040518463ffffffff167c0100000000000000000000000000000000000000000000000000000000028152600401808473ffffffffffffffffffffffffffffffffffffffff1673ffffffffffffffffffffffffffffffffffffffff1681526020018373ffffffffffffffffffffffffffffffffffffffff1673ffffffffffffffffffffffffffffffffffffffff1681526020018281526020019350505050602060405180830381600087803b1580156103a957600080fd5b505af11580156103bd573d6000803e3d6000fd5b505050506040513d60208110156103d357600080fd5b81019080805190602001909291905050509150509a9950505050505050505050565b60008373ffffffffffffffffffffffffffffffffffffffff166323b872dd3285856040518463ffffffff167c0100000000000000000000000000000000000000000000000000000000028152600401808473ffffffffffffffffffffffffffffffffffffffff1673ffffffffffffffffffffffffffffffffffffffff1681526020018373ffffffffffffffffffffffffffffffffffffffff1673ffffffffffffffffffffffffffffffffffffffff1681526020018281526020019350505050602060405180830381600087803b1580156104ce57600080fd5b505af11580156104e2573d6000803e3d6000fd5b505050506040513d60208110156104f857600080fd5b810190808051906020019092919050505090509392505050565b6000338686868686604051808773ffffffffffffffffffffffffffffffffffffffff1673ffffffffffffffffffffffffffffffffffffffff166c010000000000000000000000000281526014018673ffffffffffffffffffffffffffffffffffffffff1673ffffffffffffffffffffffffffffffffffffffff166c010000000000000000000000000281526014018573ffffffffffffffffffffffffffffffffffffffff1673ffffffffffffffffffffffffffffffffffffffff166c010000000000000000000000000281526014018473ffffffffffffffffffffffffffffffffffffffff1673ffffffffffffffffffffffffffffffffffffffff166c010000000000000000000000000281526014018381526020018281526020019650505050505050604051809103902060405180807f19457468657265756d205369676e6564204d6573736167653a0a333200000000815250601c0182600019166000191681526020019150506040518091039020905095945050505050565b600080600187868686604051600081526020016040526040518085600019166000191681526020018460ff1660ff1681526020018360001916600019168152602001826000191660001916815260200194505050505060206040516020810390808403906000865af1158015610708573d6000803e3d6000fd5b5050506020604051035190508073ffffffffffffffffffffffffffffffffffffffff168673ffffffffffffffffffffffffffffffffffffffff1614915050959450505050505600a165627a7a72305820f0694b3d11cf46204b2411fe13a32c6c28d4801f14143cbf1ae1a88ab2991ad50029",
  "source": "pragma solidity ^0.4.24;\n\nimport \"./SubContract.sol\";\nimport \"./ParadigmBank.sol\";\n\ncontract OrderGateway {\n\n    ParadigmBank public paradigmBank;\n\n    event DealAdded(address dealOwner, uint timestamp, address modelAddress, address desiredToken, address paymentToken);\n\n    constructor() public {\n        paradigmBank = new ParadigmBank();\n    }\n\n    function participate(address subContract, bytes32[] makerData, bytes32[] takerData) public returns (bool) {\n        return SubContract(subContract).participate(makerData, takerData);\n    }\n\n    function makerDataTypes(address subContract) public view returns (string) {\n        return SubContract(subContract).makerDataTypes();\n    }\n\n    function takerDataTypes(address subContract) public view returns (string) {\n        return SubContract(subContract).takerDataTypes();\n    }\n}",
  "sourcePath": "/Users/Freydal/RubymineProjects/ParadigmContracts/contracts/OrderGateway.sol",
  "compiler": {
    "name": "solc",
    "version": "0.4.24+commit.e67f0147.Emscripten.clang"
  },
  "schemaVersion": "2.0.0",
  "updatedAt": "2018-08-01T15:59:35.314Z"
}