{
  "contractName": "ParadigmBank",
  "abi": [
    {
      "constant": false,
      "inputs": [
        {
          "name": "token",
          "type": "address"
        },
        {
          "name": "to",
          "type": "address"
        },
        {
          "name": "value",
          "type": "uint256"
        }
      ],
      "name": "transferFromOrigin",
      "outputs": [
        {
          "name": "",
          "type": "bool"
        }
      ],
      "payable": false,
      "stateMutability": "nonpayable",
      "type": "function"
    },
    {
      "constant": false,
      "inputs": [
        {
          "name": "token",
          "type": "address"
        },
        {
          "name": "from",
          "type": "address"
        },
        {
          "name": "to",
          "type": "address"
        },
        {
          "name": "value",
          "type": "uint256"
        },
        {
          "name": "signedTo",
          "type": "address"
        },
        {
          "name": "signedValue",
          "type": "uint256"
        },
        {
          "name": "v",
          "type": "uint8"
        },
        {
          "name": "r",
          "type": "bytes32"
        },
        {
          "name": "s",
          "type": "bytes32"
        },
        {
          "name": "nonce",
          "type": "uint256"
        }
      ],
      "name": "transferFromSignature",
      "outputs": [
        {
          "name": "",
          "type": "bool"
        }
      ],
      "payable": false,
      "stateMutability": "nonpayable",
      "type": "function"
    }
  ],
  "bytecode": "0x608060405234801561001057600080fd5b5061077b806100206000396000f30060806040526004361061004c576000357c0100000000000000000000000000000000000000000000000000000000900463ffffffff168063189a809214610051578063a616daa614610153575b600080fd5b34801561005d57600080fd5b50610139600480360381019080803573ffffffffffffffffffffffffffffffffffffffff169060200190929190803573ffffffffffffffffffffffffffffffffffffffff169060200190929190803573ffffffffffffffffffffffffffffffffffffffff16906020019092919080359060200190929190803573ffffffffffffffffffffffffffffffffffffffff16906020019092919080359060200190929190803560ff16906020019092919080356000191690602001909291908035600019169060200190929190803590602001909291905050506101d8565b604051808215151515815260200191505060405180910390f35b34801561015f57600080fd5b506101be600480360381019080803573ffffffffffffffffffffffffffffffffffffffff169060200190929190803573ffffffffffffffffffffffffffffffffffffffff169060200190929190803590602001909291905050506103f5565b604051808215151515815260200191505060405180910390f35b6000806101e88c8c8a8a87610512565b90506101f7818c88888861068e565b151561020257600080fd5b8973ffffffffffffffffffffffffffffffffffffffff168873ffffffffffffffffffffffffffffffffffffffff161480610252575060008873ffffffffffffffffffffffffffffffffffffffff16145b151561025d57600080fd5b86891115151561026c57600080fd5b866000808360001916600019168152602001908152602001600020548a011115151561029757600080fd5b88600080836000191660001916815260200190815260200160002054016000808360001916600019168152602001908152602001600020819055508b73ffffffffffffffffffffffffffffffffffffffff166323b872dd8c8c8c6040518463ffffffff167c0100000000000000000000000000000000000000000000000000000000028152600401808473ffffffffffffffffffffffffffffffffffffffff1673ffffffffffffffffffffffffffffffffffffffff1681526020018373ffffffffffffffffffffffffffffffffffffffff1673ffffffffffffffffffffffffffffffffffffffff1681526020018281526020019350505050602060405180830381600087803b1580156103a957600080fd5b505af11580156103bd573d6000803e3d6000fd5b505050506040513d60208110156103d357600080fd5b81019080805190602001909291905050509150509a9950505050505050505050565b60008373ffffffffffffffffffffffffffffffffffffffff166323b872dd3285856040518463ffffffff167c0100000000000000000000000000000000000000000000000000000000028152600401808473ffffffffffffffffffffffffffffffffffffffff1673ffffffffffffffffffffffffffffffffffffffff1681526020018373ffffffffffffffffffffffffffffffffffffffff1673ffffffffffffffffffffffffffffffffffffffff1681526020018281526020019350505050602060405180830381600087803b1580156104ce57600080fd5b505af11580156104e2573d6000803e3d6000fd5b505050506040513d60208110156104f857600080fd5b810190808051906020019092919050505090509392505050565b6000338686868686604051808773ffffffffffffffffffffffffffffffffffffffff1673ffffffffffffffffffffffffffffffffffffffff166c010000000000000000000000000281526014018673ffffffffffffffffffffffffffffffffffffffff1673ffffffffffffffffffffffffffffffffffffffff166c010000000000000000000000000281526014018573ffffffffffffffffffffffffffffffffffffffff1673ffffffffffffffffffffffffffffffffffffffff166c010000000000000000000000000281526014018473ffffffffffffffffffffffffffffffffffffffff1673ffffffffffffffffffffffffffffffffffffffff166c010000000000000000000000000281526014018381526020018281526020019650505050505050604051809103902060405180807f19457468657265756d205369676e6564204d6573736167653a0a333200000000815250601c0182600019166000191681526020019150506040518091039020905095945050505050565b600080600187868686604051600081526020016040526040518085600019166000191681526020018460ff1660ff1681526020018360001916600019168152602001826000191660001916815260200194505050505060206040516020810390808403906000865af1158015610708573d6000803e3d6000fd5b5050506020604051035190508073ffffffffffffffffffffffffffffffffffffffff168673ffffffffffffffffffffffffffffffffffffffff1614915050959450505050505600a165627a7a72305820f0694b3d11cf46204b2411fe13a32c6c28d4801f14143cbf1ae1a88ab2991ad50029",
  "source": "pragma solidity ^0.4.24;\n\nimport \"./Token.sol\";\n\ncontract ParadigmBank {\n\n    mapping(bytes32 => uint) remaining;\n\n    function transferFromOrigin(address token, address to, uint value) public returns (bool) {\n        return Token(token).transferFrom(tx.origin, to, value);\n    }\n\n    function transferFromSignature(\n        address token,\n        address from,\n        address to,\n        uint value,\n        address signedTo,\n        uint signedValue,\n        uint8 v,\n        bytes32 r,\n        bytes32 s,\n        uint nonce\n    ) public returns (bool) {\n        bytes32 hash = signatureHash(token, from, signedTo, signedValue, nonce);\n        require(validateSignature(hash, from, v, r, s));\n        require(signedTo == to || signedTo == 0x0 );\n        require(value <= signedValue);\n        require(value + remaining[hash] <= signedValue);\n\n        remaining[hash] = remaining[hash] + value;\n        return Token(token).transferFrom(from, to, value);\n    }\n\n    function signatureHash(address token, address from, address signedTo, uint signedValue, uint nonce) internal returns (bytes32){\n        return keccak256(\"\\x19Ethereum Signed Message:\\n32\", keccak256(msg.sender, token, from, signedTo, signedValue, nonce));\n    }\n\n    function validateSignature(bytes32 hash, address from, uint8 v, bytes32 r, bytes32 s) internal returns (bool) {\n        address recoveredAddress = ecrecover(hash, v, r, s);\n\n        return from == recoveredAddress;\n    }\n}",
  "sourcePath": "/Users/Freydal/RubymineProjects/ParadigmContracts/contracts/ParadigmBank.sol",
  "compiler": {
    "name": "solc",
    "version": "0.4.24+commit.e67f0147.Emscripten.clang"
  },
  "schemaVersion": "2.0.0",
  "updatedAt": "2018-07-31T20:53:53.543Z"
}