{
  "contractName": "SignatureVerification",
  "abi": [
    {
      "constant": true,
      "inputs": [
        {
          "name": "data",
          "type": "bytes32[]"
        }
      ],
      "name": "getSigner",
      "outputs": [
        {
          "name": "",
          "type": "address"
        }
      ],
      "payable": false,
      "stateMutability": "view",
      "type": "function"
    },
    {
      "constant": false,
      "inputs": [
        {
          "name": "data",
          "type": "bytes32[]"
        }
      ],
      "name": "getOrderHash",
      "outputs": [
        {
          "name": "",
          "type": "bytes32"
        }
      ],
      "payable": false,
      "stateMutability": "nonpayable",
      "type": "function"
    },
    {
      "constant": false,
      "inputs": [
        {
          "name": "data",
          "type": "bytes32[]"
        }
      ],
      "name": "verify",
      "outputs": [
        {
          "name": "",
          "type": "bool"
        }
      ],
      "payable": false,
      "stateMutability": "nonpayable",
      "type": "function"
    },
    {
      "constant": false,
      "inputs": [
        {
          "name": "signer",
          "type": "address"
        },
        {
          "name": "orderHash",
          "type": "bytes32"
        },
        {
          "name": "v",
          "type": "uint8"
        },
        {
          "name": "r",
          "type": "bytes32"
        },
        {
          "name": "s",
          "type": "bytes32"
        }
      ],
      "name": "checkSignature",
      "outputs": [
        {
          "name": "",
          "type": "bool"
        }
      ],
      "payable": false,
      "stateMutability": "nonpayable",
      "type": "function"
    }
  ],
  "bytecode": "0x608060405234801561001057600080fd5b506104ea806100206000396000f300608060405260043610610062576000357c0100000000000000000000000000000000000000000000000000000000900463ffffffff16806365e2cd9914610067578063976116381461010d5780639f46e9d71461018b578063e5a4aaa11461021d575b600080fd5b34801561007357600080fd5b506100cb6004803603810190808035906020019082018035906020019080806020026020016040519081016040528093929190818152602001838360200280828437820191505050505050919291929050505061029f565b604051808273ffffffffffffffffffffffffffffffffffffffff1673ffffffffffffffffffffffffffffffffffffffff16815260200191505060405180910390f35b34801561011957600080fd5b50610171600480360381019080803590602001908201803590602001908080602002602001604051908101604052809392919081815260200183836020028082843782019150505050505091929192905050506102c5565b604051808215151515815260200191505060405180910390f35b34801561019757600080fd5b50610203600480360381019080803573ffffffffffffffffffffffffffffffffffffffff1690602001909291908035600019169060200190929190803560ff16906020019092919080356000191690602001909291908035600019169060200190929190505050610350565b604051808215151515815260200191505060405180910390f35b34801561022957600080fd5b506102816004803603810190808035906020019082018035906020019080806020026020016040519081016040528093929190818152602001838360200280828437820191505050505050919291929050505061045c565b60405180826000191660001916815260200191505060405180910390f35b60008160008151811015156102b057fe5b90602001906020020151600190049050919050565b6000806000808460038651038151811015156102dd57fe5b906020019060200201516001900492508460028651038151811015156102ff57fe5b90602001906020020151915084600186510381518110151561031d57fe5b9060200190602002015190506103466103358661029f565b61033e8761045c565b858585610350565b9350505050919050565b60008060008660405180807f19457468657265756d205369676e6564204d6573736167653a0a333200000000815250601c01826000191660001916815260200191505060405180910390209150600182878787604051600081526020016040526040518085600019166000191681526020018460ff1660ff1681526020018360001916600019168152602001826000191660001916815260200194505050505060206040516020810390808403906000865af1158015610414573d6000803e3d6000fd5b5050506020604051035190508073ffffffffffffffffffffffffffffffffffffffff168873ffffffffffffffffffffffffffffffffffffffff16149250505095945050505050565b60006104678261029f565b604051808273ffffffffffffffffffffffffffffffffffffffff1673ffffffffffffffffffffffffffffffffffffffff166c01000000000000000000000000028152601401915050604051809103902090509190505600a165627a7a72305820f7fe101be3dfd48117159b06306694a7e5526c9f5ee1030d018f8890ac95d56b0029",
  "source": "pragma solidity ^0.4.24;\n\ncontract SignatureVerification {\n\n  function getSigner(bytes32[] data) view public returns (address) {\n    return address(data[0]);\n  }\n\n  function getOrderHash(bytes32[] data) returns (bytes32) {\n    return keccak256(getSigner(data));\n  }\n\n  function verify(bytes32[] data) returns (bool) {\n    uint8   v = uint8(data[data.length - 3]);\n    bytes32 r = data[data.length - 2];\n    bytes32 s = data[data.length - 1];\n\n    return checkSignature(getSigner(data), getOrderHash(data), v, r, s);\n  }\n\n  function checkSignature(address signer, bytes32 orderHash, uint8 v, bytes32 r, bytes32 s) returns (bool) {\n    bytes32 hash = keccak256(\"\\x19Ethereum Signed Message:\\n32\", orderHash);\n    address recoveredAddress = ecrecover(hash, v, r, s);\n    return signer == recoveredAddress;\n  }\n\n}\n",
  "sourcePath": "/Users/Freydal/RubymineProjects/ParadigmContracts/contracts/SignatureVerification.sol",
  "compiler": {
    "name": "solc",
    "version": "0.4.24+commit.e67f0147.Emscripten.clang"
  },
  "schemaVersion": "2.0.0",
  "updatedAt": "2018-07-31T20:53:53.544Z"
}