{
  "contractName": "ZeroExSubContract",
  "abi": [
    {
      "constant": true,
      "inputs": [],
      "name": "paradigmBank",
      "outputs": [
        {
          "name": "",
          "type": "address"
        }
      ],
      "payable": false,
      "stateMutability": "view",
      "type": "function"
    },
    {
      "constant": true,
      "inputs": [],
      "name": "exchange",
      "outputs": [
        {
          "name": "",
          "type": "address"
        }
      ],
      "payable": false,
      "stateMutability": "view",
      "type": "function"
    },
    {
      "constant": true,
      "inputs": [],
      "name": "takerArguments",
      "outputs": [
        {
          "name": "",
          "type": "string"
        }
      ],
      "payable": false,
      "stateMutability": "view",
      "type": "function"
    },
    {
      "constant": true,
      "inputs": [],
      "name": "zeroExProxy",
      "outputs": [
        {
          "name": "",
          "type": "address"
        }
      ],
      "payable": false,
      "stateMutability": "view",
      "type": "function"
    },
    {
      "constant": true,
      "inputs": [],
      "name": "makerArguments",
      "outputs": [
        {
          "name": "",
          "type": "string"
        }
      ],
      "payable": false,
      "stateMutability": "view",
      "type": "function"
    },
    {
      "inputs": [
        {
          "name": "_exchange",
          "type": "address"
        },
        {
          "name": "_proxy",
          "type": "address"
        },
        {
          "name": "_makerArguments",
          "type": "string"
        },
        {
          "name": "_takerArguments",
          "type": "string"
        }
      ],
      "payable": false,
      "stateMutability": "nonpayable",
      "type": "constructor"
    },
    {
      "constant": false,
      "inputs": [
        {
          "name": "makerData",
          "type": "bytes32[]"
        },
        {
          "name": "takerData",
          "type": "bytes32[]"
        }
      ],
      "name": "participate",
      "outputs": [
        {
          "name": "",
          "type": "bool"
        }
      ],
      "payable": false,
      "stateMutability": "nonpayable",
      "type": "function"
    }
  ],
  "bytecode": "0x60806040523480156200001157600080fd5b506040516200119e3803806200119e8339810180604052810190808051906020019092919080519060200190929190805182019291906020018051820192919050505083600360006101000a81548173ffffffffffffffffffffffffffffffffffffffff021916908373ffffffffffffffffffffffffffffffffffffffff16021790555082600460006101000a81548173ffffffffffffffffffffffffffffffffffffffff021916908373ffffffffffffffffffffffffffffffffffffffff1602179055508160009080519060200190620000ee92919062000112565b5080600190805190602001906200010792919062000112565b5050505050620001c1565b828054600181600116156101000203166002900490600052602060002090601f016020900481019282601f106200015557805160ff191683800117855562000186565b8280016001018555821562000186579182015b828111156200018557825182559160200191906001019062000168565b5b50905062000195919062000199565b5090565b620001be91905b80821115620001ba576000816000905550600101620001a0565b5090565b90565b610fcd80620001d16000396000f300608060405260043610610078576000357c0100000000000000000000000000000000000000000000000000000000900463ffffffff16806387e07b8c1461007d578063d2f7265a146100d4578063df3ee9b71461012b578063e6d39541146101bb578063e79d2ed814610212578063ea9960d8146102a2575b600080fd5b34801561008957600080fd5b50610092610363565b604051808273ffffffffffffffffffffffffffffffffffffffff1673ffffffffffffffffffffffffffffffffffffffff16815260200191505060405180910390f35b3480156100e057600080fd5b506100e9610389565b604051808273ffffffffffffffffffffffffffffffffffffffff1673ffffffffffffffffffffffffffffffffffffffff16815260200191505060405180910390f35b34801561013757600080fd5b506101406103af565b6040518080602001828103825283818151815260200191508051906020019080838360005b83811015610180578082015181840152602081019050610165565b50505050905090810190601f1680156101ad5780820380516001836020036101000a031916815260200191505b509250505060405180910390f35b3480156101c757600080fd5b506101d061044d565b604051808273ffffffffffffffffffffffffffffffffffffffff1673ffffffffffffffffffffffffffffffffffffffff16815260200191505060405180910390f35b34801561021e57600080fd5b50610227610473565b6040518080602001828103825283818151815260200191508051906020019080838360005b8381101561026757808201518184015260208101905061024c565b50505050905090810190601f1680156102945780820380516001836020036101000a031916815260200191505b509250505060405180910390f35b3480156102ae57600080fd5b506103496004803603810190808035906020019082018035906020019080806020026020016040519081016040528093929190818152602001838360200280828437820191505050505050919291929080359060200190820180359060200190808060200260200160405190810160405280939291908181526020018383602002808284378201915050505050509192919290505050610511565b604051808215151515815260200191505060405180910390f35b600260009054906101000a900473ffffffffffffffffffffffffffffffffffffffff1681565b600360009054906101000a900473ffffffffffffffffffffffffffffffffffffffff1681565b60018054600181600116156101000203166002900480601f0160208091040260200160405190810160405280929190818152602001828054600181600116156101000203166002900480156104455780601f1061041a57610100808354040283529160200191610445565b820191906000526020600020905b81548152906001019060200180831161042857829003601f168201915b505050505081565b600460009054906101000a900473ffffffffffffffffffffffffffffffffffffffff1681565b60008054600181600116156101000203166002900480601f0160208091040260200160405190810160405280929190818152602001828054600181600116156101000203166002900480156105095780601f106104de57610100808354040283529160200191610509565b820191906000526020600020905b8154815290600101906020018083116104ec57829003601f168201915b505050505081565b600080600080600080600080600089600281518110151561052e57fe5b906020019060200201516001900497508a600381518110151561054d57fe5b906020019060200201516001900496508a600281518110151561056c57fe5b9060200190602002015160019004955089600081518110151561058b57fe5b906020019060200201516001900494508a60058151811015156105aa57fe5b906020019060200201516001900493508a60068151811015156105c957fe5b906020019060200201516001900492508673ffffffffffffffffffffffffffffffffffffffff166323b872dd8930886040518463ffffffff167c0100000000000000000000000000000000000000000000000000000000028152600401808473ffffffffffffffffffffffffffffffffffffffff1673ffffffffffffffffffffffffffffffffffffffff1681526020018373ffffffffffffffffffffffffffffffffffffffff1673ffffffffffffffffffffffffffffffffffffffff1681526020018281526020019350505050602060405180830381600087803b1580156106b057600080fd5b505af11580156106c4573d6000803e3d6000fd5b505050506040513d60208110156106da57600080fd5b8101908080519060200190929190505050508673ffffffffffffffffffffffffffffffffffffffff1663095ea7b3600460009054906101000a900473ffffffffffffffffffffffffffffffffffffffff168c600081518110151561073a57fe5b90602001906020020151600190046040518363ffffffff167c0100000000000000000000000000000000000000000000000000000000028152600401808373ffffffffffffffffffffffffffffffffffffffff1673ffffffffffffffffffffffffffffffffffffffff16815260200182815260200192505050602060405180830381600087803b1580156107cd57600080fd5b505af11580156107e1573d6000803e3d6000fd5b505050506040513d60208110156107f757600080fd5b8101908080519060200190929190505050506108138b8b6109f4565b9150600360009054906101000a900473ffffffffffffffffffffffffffffffffffffffff1673ffffffffffffffffffffffffffffffffffffffff166398024a8b8585856040518463ffffffff167c0100000000000000000000000000000000000000000000000000000000028152600401808481526020018381526020018281526020019350505050602060405180830381600087803b1580156108b657600080fd5b505af11580156108ca573d6000803e3d6000fd5b505050506040513d60208110156108e057600080fd5b8101908080519060200190929190505050905060008211156109e1578573ffffffffffffffffffffffffffffffffffffffff1663a9059cbb89836040518363ffffffff167c0100000000000000000000000000000000000000000000000000000000028152600401808373ffffffffffffffffffffffffffffffffffffffff1673ffffffffffffffffffffffffffffffffffffffff16815260200182815260200192505050602060405180830381600087803b15801561099f57600080fd5b505af11580156109b3573d6000803e3d6000fd5b505050506040513d60208110156109c957600080fd5b810190808051906020019092919050505098506109e6565b600098505b505050505050505092915050565b6000600360009054906101000a900473ffffffffffffffffffffffffffffffffffffffff1673ffffffffffffffffffffffffffffffffffffffff1663bc61394a610a3d85610bfc565b610a4686610e04565b856000815181101515610a5557fe5b90602001906020020151600190046000876001815181101515610a7457fe5b9060200190602002015160019004141588600b815181101515610a9357fe5b906020019060200201516001900489600c815181101515610ab057fe5b906020019060200201518a600d815181101515610ac957fe5b906020019060200201516040518863ffffffff167c01000000000000000000000000000000000000000000000000000000000281526004018088600560200280838360005b83811015610b29578082015181840152602081019050610b0e565b5050505090500187600660200280838360005b83811015610b57578082015181840152602081019050610b3c565b50505050905001868152602001851515151581526020018460ff1660ff16815260200183600019166000191681526020018260001916600019168152602001975050505050505050602060405180830381600087803b158015610bb957600080fd5b505af1158015610bcd573d6000803e3d6000fd5b505050506040513d6020811015610be357600080fd5b8101908080519060200190929190505050905092915050565b610c04610f5b565b610c0c610f5b565b826000815181101515610c1b57fe5b9060200190602002015160019004816000600581101515610c3857fe5b602002019073ffffffffffffffffffffffffffffffffffffffff16908173ffffffffffffffffffffffffffffffffffffffff1681525050826001815181101515610c7e57fe5b9060200190602002015160019004816001600581101515610c9b57fe5b602002019073ffffffffffffffffffffffffffffffffffffffff16908173ffffffffffffffffffffffffffffffffffffffff1681525050826002815181101515610ce157fe5b9060200190602002015160019004816002600581101515610cfe57fe5b602002019073ffffffffffffffffffffffffffffffffffffffff16908173ffffffffffffffffffffffffffffffffffffffff1681525050826003815181101515610d4457fe5b9060200190602002015160019004816003600581101515610d6157fe5b602002019073ffffffffffffffffffffffffffffffffffffffff16908173ffffffffffffffffffffffffffffffffffffffff1681525050826004815181101515610da757fe5b9060200190602002015160019004816004600581101515610dc457fe5b602002019073ffffffffffffffffffffffffffffffffffffffff16908173ffffffffffffffffffffffffffffffffffffffff168152505080915050919050565b610e0c610f7e565b610e14610f7e565b826005815181101515610e2357fe5b9060200190602002015160019004816000600681101515610e4057fe5b602002018181525050826006815181101515610e5857fe5b9060200190602002015160019004816001600681101515610e7557fe5b602002018181525050826007815181101515610e8d57fe5b9060200190602002015160019004816002600681101515610eaa57fe5b602002018181525050826008815181101515610ec257fe5b9060200190602002015160019004816003600681101515610edf57fe5b602002018181525050826009815181101515610ef757fe5b9060200190602002015160019004816004600681101515610f1457fe5b60200201818152505082600a815181101515610f2c57fe5b9060200190602002015160019004816005600681101515610f4957fe5b60200201818152505080915050919050565b60a060405190810160405280600590602082028038833980820191505090505090565b60c0604051908101604052806006906020820280388339808201915050905050905600a165627a7a72305820b2e15633b2ee7c7010960f8c3f3ef0f6ce0b109c2ecce3872bc01e5cd317acad0029",
  "source": "pragma solidity ^0.4.24;\n\nimport { ZeroExExchangeInterface as Exchange } from \"./ZeroExExchangeInterface.sol\";\nimport \"./SubContract.sol\";\nimport \"./Token.sol\";\n\ncontract ZeroExSubContract is SubContract {\n\n  Exchange public exchange;\n  address public zeroExProxy;\n\n  constructor(address _exchange, address _proxy, string _makerArguments, string _takerArguments) public {\n    exchange = Exchange(_exchange);\n    zeroExProxy = _proxy;\n    makerArguments = _makerArguments;\n    takerArguments = _takerArguments;\n  }\n\n  function participate(bytes32[] makerData, bytes32[] takerData) public returns (bool) {\n    address taker = address(takerData[2]);\n    Token takerToken = Token(address(makerData[3]));\n    Token makerToken = Token(address(makerData[2]));\n    uint takerTokenToTrade = uint(takerData[0]);\n    uint makerTokenCount = uint(makerData[5]);\n    uint takerTokenCount = uint(makerData[6]);\n\n    takerToken.transferFrom(taker, this, takerTokenToTrade);\n    takerToken.approve(zeroExProxy, uint(takerData[0]));\n\n    uint takerTokensTransferred = fillOrder(makerData, takerData);\n    uint makerTokensToOutput = exchange.getPartialAmount(makerTokenCount, takerTokenCount, takerTokensTransferred);\n\n    if(takerTokensTransferred > 0) {\n      return makerToken.transfer(taker, makerTokensToOutput);\n    } else {\n      return false;\n    }\n  }\n\n  function fillOrder(bytes32[] makerData, bytes32[] takerData) internal returns (uint) {\n    return exchange.fillOrder(\n      getAddresses(makerData),\n      getNumbers(makerData),\n      uint(takerData[0]), uint(takerData[1]) != 0, uint8(makerData[11]), makerData[12], makerData[13]);\n  }\n\n  function getAddresses(bytes32[] makerData) internal pure returns (address[5]) {\n    address[5] memory addresses;\n    addresses[0] = address(makerData[0]);\n    addresses[1] = address(makerData[1]);\n    addresses[2] = address(makerData[2]);\n    addresses[3] = address(makerData[3]);\n    addresses[4] = address(makerData[4]);\n    return addresses;\n  }\n  function getNumbers(bytes32[] makerData) internal pure returns (uint[6]) {\n    uint[6] memory numbers;\n\n    numbers[0] = uint(makerData[5]);\n    numbers[1] = uint(makerData[6]);\n    numbers[2] = uint(makerData[7]);\n    numbers[3] = uint(makerData[8]);\n    numbers[4] = uint(makerData[9]);\n    numbers[5] = uint(makerData[10]);\n\n    return numbers;\n  }\n}",
  "sourcePath": "/Users/Freydal/RubymineProjects/ParadigmContracts/contracts/ZeroExSubContract.sol",
  "compiler": {
    "name": "solc",
    "version": "0.4.24+commit.e67f0147.Emscripten.clang"
  },
  "schemaVersion": "2.0.1",
  "updatedAt": "2018-08-22T12:54:32.078Z"
}